:020000040800F2
:100000007044002099010008DB2900086D220008D7
:10001000D9290008A51200082534000800000000B6
:1000200000000000000000000000000001010008C6
:10003000F71200080000000045010008192F000811
:10004000B3010008B3010008B3010008B3010008C0
:10005000B3010008B3010008B3010008B3010008B0
:10006000B3010008B301000809130008B301000838
:10007000B3010008B3010008B3010008B301000890
:10008000B3010008B3010008B3010008B301000880
:10009000B3010008B3010008B3010008B301000870
:1000A000B3010008B3010008B3010008B301000860
:1000B000B3010008B30100088D2F0008B301000848
:1000C000B3010008B3010008B3010008B301000840
:1000D000B3010008DD330008B3010008B3010008D4
:1000E000B3010008B3010008B3010008DFF80CD029
:1000F00000F07AFE00480047DD80000870440020D0
:10010000224B19680868B0E8F00F80F30988BFF344
:100110006F8F4FF0000080F311884EF00D0E704786
:100120000000000006480068006880F3088862B696
:1001300061B6BFF34F8FBFF36F8F00DF00BF00BF0B
:1001400008ED00E0EFF30980BFF36F8F0F4B1A68E3
:1001500020E9F00F106008B54FF0500080F31188CF
:10016000BFF34F8FBFF36F8F0BF098FB4FF0000082
:1001700080F31188BDE8084019680868B0E8F00FFE
:1001800080F30988BFF36F8F704700BF3C000020E9
:10019000EFF3058070470000064880470648004797
:1001A000FEE7FEE7FEE7FEE7FEE7FEE7FEE7FEE727
:1001B000FEE7FEE78B2F0008ED0000082DE9F04177
:1001C0000024061B254671F1000605DA01240027EC
:1001D000D0EB070067EB0101161E73F1000605DA8C
:1001E0000027D2EB0702012567EB030300F0A4FC14
:1001F00086460E4617469C46AC4204D00025D0EBFE
:10020000050E65EB010624B10020D2EB000760EB80
:10021000030C704631463A466346BDE8F081202A19
:1002200004DB203A21FA02F00021704721FA02F3A0
:10023000D040C2F1200291400843194670470000A7
:100240000649074A0868504343F2390210440860DF
:1002500040087047014908607047000040020020D4
:100260006D4EC64140EA01039B0703D009E008C96F
:10027000121F08C0042AFAD203E011F8013B00F86B
:10028000013B521EF9D27047D2B201E000F8012BB7
:10029000491EFBD270470022F6E710B513460A4606
:1002A00004461946FFF7F0FF204610BD30B505465D
:1002B0002A460B4612F8010B13F8014B08B1A04275
:1002C000F8D01CB1002802D06D1CF1E7284630BDE3
:1002D000421C10F8011B0029FBD1801A704730B571
:1002E00004460020034600E05B1C934203D2E05C1E
:1002F000CD5C401BF8D030BD034611F8012B00F84F
:10030000012B002AF9D11846704730B50546002068
:10031000034600E05B1C934205D2EC5CC85C201AEB
:1003200001D1002CF6D130BD10B54843044607F08A
:1003300085FF002805D00021002C02D0641E015545
:10034000FAE710BD0FB400B58DB010A909900B905D
:1003500000914FF0FF300A9000200C900548069065
:10036000054807906A4609A80F9900F04BFC0DB0AC
:100370005DF814FB210C00083F0C00082DE9FF5F1D
:100380001D464FF0FF3BD5E9014691465F464FF0D1
:100390000008A9697F1C01988847296A8246884716
:1003A0000028F6D1BAF1FF3F0CD024F4C064002E2F
:1003B00019DD600614D5BAF12B0F09D0BAF12D0F53
:1003C0000ED103E0584604B0BDE8F09F44F48064C9
:1003D000A9697F1C01988847761E8246002E02DD9F
:1003E000BAF1300F03D0B9F1000F26D032E0A9697D
:1003F000761E44F400747F1C019888478246002EC4
:1004000005DDBAF1780F06D0BAF1580F03D0B9F173
:10041000000F10D01EE0B9F1000F02D0B9F1100F9B
:1004200018D1A969761E24F400747F1C01988847AE
:100430008246102002E0082000E00A20814609E000
:1004400008FB0908A969761E44F400747F1C019812
:1004500088478246002E05DD4946504600F0BEFB27
:100460000028EDDAE96901988847A00502D46FF009
:100470000100A8E7E00725D1600613D5600502D585
:10048000C8F1000000E0404629680A1D2A6009689A
:10049000220501D5087015E0220701D5088011E07A
:1004A00008600FE02868011D29600068210502D559
:1004B00080F8008006E0210702D5A0F8008001E066
:1004C000C0F8008038467EE7F0B480EA0102D40F1D
:1004D0004200B2EB410F02D20246084611464A00E2
:1004E00042D0C30DDDB2C1F3C752AD1A202D35DAAB
:1004F000C1F3160141F4000204B15242C5F12006D5
:1005000002FA06F12A411044B3EBD05F23D0C4B104
:10051000012DA0EBC35009DCF0BC4FF0004202EA11
:10052000C352DBB200F5000000F0A3BB400000F1B5
:10053000807000EBC350A0F1807040EAD170490098
:1005400009E0490841EAC071A0EBC35000F5000082
:10055000400800EBC350F0BC00F082BB61420122B6
:1005600002EB4101001BF6E7F0BC704781F000414F
:10057000AAE780F00040A7E780EA010210B502F088
:100580000043400022D04A001FD0010E01EB12614F
:10059000C0F35600C2F3560240F4000042F40002D9
:1005A000A0FB022000047F39140400D0401C50EA54
:1005B000124001D44000491EC2B20C0604EBD01018
:1005C000401C4008802A02D003E0002010BD20F02B
:1005D0000100002900DA0020184310BD30B480EA81
:1005E000010202F0004530F0004221F0004013D03B
:1005F00090B1C30DD40DC2F31601C0F31600E41A76
:1006000041F4000140F400027D34914201D3641CA6
:1006100000E04900002C02DA30BC002070474FF4A3
:1006200000000023914201D3891A034340084FEA96
:100630004101F7D151B1914202D14FF0004105E0A3
:1006400002D24FF0010101E06FF0010103EBC45051
:10065000284430BC00F004BB420005D0C0F3C752B0
:100660005242914201DC0020704700EBC1507047BC
:100670002DE9FE4F804681EA0300C00F0C46009032
:1006800021F0004123F00045B8EB0200A94105D25A
:100690004046214690461C460B46024623F0004049
:1006A000104347D0270DC7F30A00C3F30A51029045
:1006B000401A019040286BDAC3F3130040F4801B0A
:1006C0000098924620B10023D2EB030A63EB0B0B98
:1006D00001985946C0F14002504600F05EFA0646C5
:1006E0000D4650465946019A00F066FA10EB080094
:1006F0006141002487EA115284EAE7731A4340D02B
:10070000009A62B3019A012A4FEA075215DC001BD6
:1007100061EB02014FF0004202EA0752CDE90042CC
:10072000001C41F5801132462B4600F0DFFA03B081
:10073000BDE8F08F40462146F9E7001B61EB02015E
:10074000001C41F5801300185B412018A2F500172A
:1007500047EB030140EAD570B6196D4111E06D0811
:100760004FEA360645EAC0754FEA0752001B61EBB7
:100770000201001C41F5801149084FEA30000019C0
:10078000514132462B4603B0BDE8F04F00F09FBA0E
:100790000098012240000023D0EB020263EBE073DB
:1007A000009821464FEAE074B8EB000061EB0401C9
:1007B000E9E783F000435BE781F0004158E72DE96A
:1007C000FE4F81EA030404F0004421F0004100944C
:1007D0004FF0000B23F0004350EA01045ED052EAD0
:1007E00003045BD0C3F30A54C1F30A552C44A4F2AA
:1007F000F3340194A0FB0254C1F3130141F48011BE
:10080000C3F3130343F4801301FB024400FB034EC4
:10081000840A970A44EA815447EA8357A4FB07688D
:1008200002958D0A05FB07854FEA932C04FB0C54B7
:100830002705029D4FEA065847EA1637B5EB08052B
:100840006EEB070C870E920E47EA811742EA83127D
:10085000A7FB0201B6EB0B0164EB00042B0D43EA8E
:100860000C335E1844EB1C50DA465146E7FB02019C
:10087000C5F313044FEA0B3343EA14534FEA04322F
:10088000019C43EA0603A4F10C040294009CCDE908
:1008900000B400F02BFA03B0BDE8F08F0020014651
:1008A000F9E72DE9F04D81EA030404F0004B21F053
:1008B000004514464FF0000A23F0004150EA0502BB
:1008C00020D054EA01021DD0C5F30A570246C5F3F1
:1008D0001303C1F31300C1F30A5640F4801543F427
:1008E0008013A7EB0608101BD64608F2FD3873EB01
:1008F000050002D308F1010801E092185B41B8F14C
:10090000000F03DA00200146BDE8F08D00204FF40F
:100910008011064684460EE0171B73EB050705D3CE
:10092000121B63EB050306434CEA010C49084FEA2E
:10093000300092185B4150EA0107EDD152EA030002
:1009400012D082EA040083EA0501084305D0101B97
:10095000AB4106D20122002306E000224FF0004303
:1009600002E06FF0010253101AEB06004CEB085145
:1009700010EB0A0041EB0B01BDE8F04D00F0A7B908
:1009800070B521F0004303430CD0C1F30A55002495
:10099000D5EB040564EB0403D617AD1AB34102DBB3
:1009A0000020014670BD201841EB025170BDC10FFF
:1009B00080EAE0700844CA079623002100F059B984
:1009C00096230022114600F054B90EB5C10F80EAFB
:1009D000E0700844CA07002140F233438DE80E005E
:1009E0000A460B4600F082F903B000BD00F0004259
:1009F00020F00040C10DC0F3160040F400007F2934
:100A000001DA00207047962903DCC1F19601C84045
:100A100001E096398840002AF4D04042704720F027
:100A20000040C10DC0F3160040F400007F2901DA38
:100A300000207047962903DCC1F19601C840704739
:100A400096398840704770B5C1F30A5201F00045ED
:100A50000024C1F3130140F2FF3341F480119A42A4
:100A600001DA002070BD40F233439A42A2F23342D1
:100A700003DC5242FFF7D3FB00E090402C43F1D05F
:100A8000404270BD00F0004230F000400AD0C10D7D
:100A900001F56071C0F3160042EA0151C208400737
:100AA0001143704700200146704701F0004330B405
:100AB00021F0004150EA010206D00A0DA2F5607251
:100AC000C1F31301002A02DC30BC00207047440F40
:100AD00044EAC104C100E01830BC00EBC25000F091
:100AE000BFB80000002801DBC0F10040002901DB95
:100AF000C1F1004181427047002801DBC0F1004094
:100B0000002901DBC1F100418842704730B50B4636
:100B1000014600202022012409E021FA02F59D422D
:100B200005D303FA02F5491B04FA02F52844151E01
:100B3000A2F10102F1DC30BD2DE9F05F0546002095
:100B400092469B4688460646814640241BE028463E
:100B5000414647462246FFF762FB53465A46C01AB3
:100B6000914110D311461846224600F016F82D1A6E
:100B700067EB01084F4622460120002100F00DF8E6
:100B800017EB00094E41201EA4F10104DFDC4846AA
:100B900031462A464346BDE8F09F202A04DB203A2E
:100BA00000FA02F1002070479140C2F1200320FAC0
:100BB00003F3194390407047202A06DBCB17203AF5
:100BC00041FA02F043EAE07306E041FA02F3D04052
:100BD000C2F1200291400843194670473A2800D2DA
:100BE000303820F02002412A01D3A2F13700884298
:100BF00001D34FF0FF307047026811441378016051
:100C000018467047D16004495161044911620021BE
:100C10001161114600F000B9F90B00080D0E000833
:100C2000426842B1016811F8013B23B1521EC0E98C
:100C30000012184670470121C160881E7047426843
:100C40005AB1C368016843B983688B4205D0491E15
:100C5000521CC0E90012002070474FF0FF3070476F
:100C60000029A8BF7047401C490008BF20F00100C0
:100C7000704710B4B0FA80FC00FA0CF050EA01049E
:100C800004BF10BC704749B1CCF1200421FA04F430
:100C900011FA0CF118BF012121430843A3EB0C0109
:100CA000CB1D4FEA00614FEA102042BF002010BC6C
:100CB000704700EBC35010440029A4BF10BC70471C
:100CC000401C490008BF20F0010010BC704710B55F
:100CD000141E73F1000408DA401C41F1000192185F
:100CE0005B411A4301D120F0010010BD2DE9F04D08
:100CF00092469B4611B1B1FA81F202E0B0FA80F25D
:100D000020329046FFF749FF04460F4640EA0A00AA
:100D100041EA0B0153465A46084313D0114653EAA1
:100D2000010019D0C8F140025046FFF778FA054695
:100D30000E46504659464246FFF72FFF084305D05E
:100D4000012004E020463946BDE8F08D002005432F
:100D500046EAE0762C4337430A986305E40AA0EBA1
:100D600008000022FD0A44EA47540A3002D5002058
:100D70000146E9E7010510196941DDE90845001957
:100D80006941BDE8F04DA2E7C1F30A52C1F3130176
:100D900040F2FF3341F480119A4202DA002001460A
:100DA000704740F233439A42A2F2334202DC52428D
:100DB000FFF735BAFFF7F1BE30B5041E71F100043C
:100DC00004DB4FF00044404264EB0101141E73F158
:100DD000000405DB1C464FF00043524263EB040362
:100DE000994208BF904230BD064C074D06E0E068CE
:100DF00040F0010394E8070098471034AC42F6D362
:100E0000FFF778F9FCED00081CEE0008C0B24FF4C3
:100E1000F05100F0F5B900002DE9F34F8BB04FF021
:100E2000000801F10C000C464FF0010B46460DF195
:100E3000080A01906269012101989047051E2DD092
:100E4000252D2CD0216A8847C0B162690121019803
:100E50009047216A88470028F7D1411E62690198AE
:100E6000904700E0761CA1690B988847216A884763
:100E70000028F7D1E1690B988847DBE7A1690B9857
:100E800088470746A84201D1761CD3E7E1690B9851
:100E900088477F1C02D1B8F1000F6FD046E10027D0
:100EA00062693D463946019890472A2804D1626913
:100EB0000121019890470125DFF8849262690121A0
:100EC00001989047A0F130010A290AD24F45E5DC8C
:100ED00007EB870100EB4107303FDFD445F01005F9
:100EE000ECE7E90601D46FF000476C280AD04C28E3
:100EF00014D0682815D06A280DD074281CD07A2800
:100F00001AD01DE062690121019890476C2802D037
:100F100045F0040514E045F002050DE045F020051C
:100F20000AE06269012101989047682802D045F0E3
:100F3000080505E045F400656269012101989047C4
:100F4000C4E9015765283DD019DC58287AD00CDC5B
:100F5000452837D004DC252826D0412831D131E07E
:100F600046282FD047282CD12CE05B2877D0612849
:100F700028D063287CD0642823D15AE0D0E06F28A1
:100F800048D008DC66281DD067281BD0692821D0EE
:100F90006E2816D127E0702845D0732868D07528B0
:100FA00047D078280DD14DE0A1690B9888470546B8
:100FB00025283FF469AFE1690B9888476D1C3FF421
:100FC0006AAFB3E023466A466FF001000B99AFF3B6
:100FD00000809EE045F040006060A80723464FF087
:100FE000000236D43EE0E8077FF447AF2068011DD9
:100FF00021600068290501D506701BE7290701D586
:10100000068017E7A90703D5F117C0E9006111E7CA
:1010100006600FE745F040006060A80723464FF0E8
:10102000080216D41EE040F60E0125EA01006060B9
:1010300016E045F040006060A80723464FF00A0222
:1010400007D40FE045F040006060A80708D52346AC
:1010500010226FF001000B99AFF3008059E007E018
:10106000234610226FF001000B99FFF787F950E03B
:101070004FF000094F464B46632802D05B2806D04C
:1010800040E0E80601D40120A06001273AE062694F
:101090000121019890475E2805D14FF0010962694E
:1010A000494601989047216939B900210A465346BB
:1010B00043F82120491C0829FADBB0B3216969B93A
:1010C000C11700EBD16253110AEB830122F01F021A
:1010D000821A01200B68904003430B606269012172
:1010E000019890475D28E8D1B9F1000F09D00020A0
:1010F000514651F82020D24341F82020401C0828B6
:10110000F7DB02AB224600976FF001000B99AFF3BB
:10111000008000280CDA401C08D1BBF1000F05D07C
:101120004FF0FF300DB0BDE8F08FFFE74046F9E724
:10113000E90701D108F1010806444FF0000B79E6F8
:10114000CCCCCC0C2DE9F04D00231A461B1A8A4159
:1011500003DB00200146BDE8F08DC1F30A52C1F364
:10116000130141F480154FF0000BD10702D1001894
:101170006D41521E0027044640F2FF11384601EB34
:10118000620A3E468046024600204FF48011FFF777
:1011900046F8C2197141BB1846EB0100B4EB030CD1
:1011A00075EB000C04D3E41A65EB000517460E46F8
:1011B000241908F101006D4180463428E3DDF91956
:1011C00046EB0600091BA84103D24FF0FF3213463D
:1011D00001E0002213461BEB070046EB0A51BDE875
:1011E000F04DFFF774BD0EB540F23341029100217E
:1011F000CDE900110A460B46FFF778FD03B000BDAC
:101200007F2801D9002208E0064A02EB5002C007FD
:10121000127800D1120902F00F020120904008401C
:1012200070470000F8EC000870B58C1810F8015BEE
:1012300015F0070301D110F8013B2A1106D110F86F
:10124000012B03E010F8016B01F8016B5B1EF9D173
:101250002B0705D40023521E0DD401F8013BFAE7F9
:1012600010F8013BCB1A921C03E013F8015B01F864
:10127000015B521EF9D5A142D8D3002070BD0000F9
:101280000749002000EB40020A449278120601D57B
:1012900001207047401CC0B20528F3D300207047DE
:1012A000E4000020FEE710B5012901D0022903D196
:1012B0000C31C9B2401E80B24B1C02EB410103EB62
:1012C00043030524B3FBF4F36422B0FBF2F21944A8
:1012D000014401EB9001891A4FF4C872B0FBF2F09F
:1012E0000844401C072190FBF1F201FB120000B9F9
:1012F0000720C0B210BD704710B501F0FDFBBDE87E
:10130000104001F085BB000010B5114C2068C006EC
:101310001CD510210F4800F025F9A8B90E48017816
:1013200091B10021017001F030FE00F099FA0F2018
:1013300000F042F901F0FAFD01F0CFFB03F0C2FE2C
:101340000121064803F00AFA1020206010BD0000B9
:101350001404014000080140280000200D56000838
:1013600070B5044600F008F90546601C02D0044838
:101370000078044400F000F9401BA042FAD370BD8D
:101380002C0000202DE9F84FDFF8B8910024A9F1D6
:10139000040B23460F2709F1040AABF1040EC9E040
:1013A0000125A5402A40AA427DD1674ED1F804C04C
:1013B000ACEB0608B44532D014DCBCF1030F3AD0D4
:1013C00009DCBCF1000F2AD0BCF1010F1CD0BCF12C
:1013D000020F31D11DE0BCF1110F17D0BCF1120F7B
:1013E0002AD119E0B8F5881F19D006DCB8F5803F7E
:1013F00015D0B8F5801F1FD111E0B8F5001F0ED031
:10140000B8F5041F18D10AE0CB6815E0CB681B1DA6
:1014100012E0CB6808330FE0CB680C330CE08B682C
:101420002BB1012B4FF0080303D0456104E00423E6
:1014300002E0056100E00023FF2A01D8064601E032
:1014400000F104064FEA840501D9A5F12005D6F87C
:10145000008007FA05FC28EA0C0803FA05F548EABB
:101460000508C6F800804D68ED0062D5374DAE69BD
:1014700046F00106AE61AD6924F0030605F00105F2
:101480000095334D06EB050CDCF80850A607360F27
:1014900007FA06F825EA0805DFF8B880404503D1C9
:1014A0004FF0000817E044E0DFF8AC80404502D17F
:1014B0004FF001080FE0DFF8A480404502D14FF063
:1014C000020808E0DFF89880404502D14FF0030899
:1014D00001E04FF0040808FA06F848EA0508CCF8DD
:1014E00008804D68D9F80060ED024D4601D51643DD
:1014F00000E096432E604D68DAF80060AD02554674
:1015000001D5164300E096432E604D68DBF800607D
:10151000AD035D4601D5164300E096432E604D684D
:10152000DEF80060ED03754601D5164300E09643F2
:101530002E60641C0D682A46E5407FF431AFBDE89B
:10154000F88F000008040140000011100010024054
:101550000000014000080140000C01400010014063
:10156000001401408068084000D0012070470AB193
:10157000016170470904FBE701488068704700007B
:101580002C00002002488168027811448160704775
:101590002C000020074810B5016841F010010160DF
:1015A000032000F093F80F2000F006F800F02CF86C
:1015B000002010BD0020024010B5124A0446104819
:1015C000106047205060002040F2E731C2E902017C
:1015D00010619061104600F089FB08B1012010BD38
:1015E000084800F0C5FB102C07D2002221461E201F
:1015F00000F04CF81E2000F03CF8002010BD000068
:1016000000080040540200200F4808B5816941F0ED
:1016100001018161816901F001010091C16941F01D
:101620008051C161C069002200F0805000900F21FC
:10163000901E00F02BF80548416821F0E06141F070
:101640000071416008BD0000001002400000014030
:1016500000280DDB00F01F020121914040098000AD
:1016600000F1E020C0F88011BFF34F8FBFF36F8F00
:101670007047002809DB00F01F020121914040095A
:10168000800000F1E020C0F800117047F0B40E4B6C
:101690001B680C46C3F30223C3F10705042D00D9D0
:1016A0000425191D072901D2002300E0DB1E0126B5
:1016B00006FA05F1491E214099409E40761E1640CB
:1016C0003143F0BC01F04ABF0CED00E0064900F0E8
:1016D000070208684FF6FF03184040EA0220034A59
:1016E00010430860704700000CED00E00000FA05B0
:1016F0000E4A10B5136823F002031360136823F039
:101700000103034313600A4C206840F0040020608A
:10171000012909D040BF01F0ECF901F0EAF9206895
:1017200020F00400206010BD30BFF8E700700040DA
:1017300010ED00E02DE9F0470F46050061D0434E63
:10174000306800F00700B84209D2306820F0070086
:1017500038433060306800F00700B84251D1286843
:101760003B4C810712D5400703D5606840F4E06028
:1017700060602878000703D5606840F460506060BE
:101780006068A96820F0F000084360602878C0070E
:1017900028D06868012810D02168022810D0890755
:1017A00000292EDA616821F0030101436160FFF72F
:1017B000E3FE804641F288390DE021688903EFE7B6
:1017C0008901EDE7FFF7D8FEA0EB0801494502D9F2
:1017D0000320BDE8F0876068696800F00C00B0EB9A
:1017E000810FEFD1306800F00700B8420BD93068A4
:1017F00020F0070038433060306800F00700B8423E
:1018000001D00120E5E72878400705D56068E96840
:1018100020F4E060084360602878000706D560681F
:10182000296920F4605040EAC100606000F0A6F829
:101830006168084AC1F30311515CC8400649086059
:1018400006480068FFF7B8FE0020C2E7002002400B
:1018500000100240A2CA000838000020300000201A
:101860002DE9F041FFF788FE304C0546206840F036
:101870000100206005E000BFFFF77EFE401B02284C
:1018800043D820688007F7D5206820F0F80040F0A2
:1018900080002060FFF770FE00250646656041F27B
:1018A000883704E0FFF768FE801BB8422DD86068D7
:1018B00010F00C0FF6D11F491D4808601E48006843
:1018C000FFF77AFE10B10120BDE8F081FFF754FE6A
:1018D0000646206820F08070206004E0FFF74CFE90
:1018E000801B022811D820688001F7D46560FFF7BB
:1018F00043FE0646206820F41020206007E000BF69
:10190000FFF73AFE801B642801D90320DCE720683A
:101910008003F5D4206820F480202060606A40F0C5
:1019200080706062A5600020CEE7000000100240D9
:1019300000127A00380000203000002004480549D9
:1019400000684968044AC1F30221515CC8407047ED
:101950003800002000100240B2CA000804480549BF
:1019600000684968044AC1F3C221515CC84070470D
:101970003800002000100240B2CA00080E4A516828
:101980000E4801F00C03042B11D0082B0FD10C488A
:10199000C1F38343C903C05C0AD55168084AC1F347
:1019A0004041921E515C054A5043B0FBF1F0704734
:1019B00004494843704700000010024000127A00BA
:1019C00092CA000800093D002DE9F84F040070D0CC
:1019D0002078C04DC00749D06868C0F38100012855
:1019E00007D06868C0F38100022809D16868C00385
:1019F00006D52868800339D560680028E7D035E02F
:101A00006068B0F5803F0BD010B1B0F5A02F11D0B9
:101A1000286820F480302860286820F4802002E0C4
:101A2000286840F480302860606890B1FFF7A4FD1A
:101A300006460AE0286840F480202860F0E700BFEE
:101A4000FFF79AFD801B642873D828688003F7D5B8
:101A50000CE0FFF791FD064605E000BFFFF78CFDA7
:101A6000801B6428F0D828688003F7D420789A4E29
:101A700080074FF001094FF0000839D5686810F071
:101A80000C0F07D06868C0F38100022809D168688C
:101A9000C00306D42868800714D52069012808D11E
:101AA00010E02069B0B1C6F80090FFF765FD074669
:101AB00005E00AE1FFF760FDC01B0228C4D82868D2
:101AC0008007F7D52868616920F0F80040EAC10076
:101AD00028600DE0C6F80080FFF74EFD074604E0E1
:101AE000FFF74AFDC01B022823D828688007F7D4D7
:101AF000207800072CD57948A169D9B1C0F80090A9
:101B0000FFF73AFD074604E0FFF736FDC01B022849
:101B10000FD8686A8007F7D571484FF4FA5100680A
:101B2000B0FBF1F0009000BF0098411E0091FAD286
:101B30000EE080E0C0F80080FFF71EFD074604E0DD
:101B4000FFF71AFDC01B022875D8686A8007F7D412
:101B50002078400760D5E8690027C00008D4E8690C
:101B600040F08050E861E869012700F08050009063
:101B70005C480168C90513D40168834641F480714B
:101B80000160FFF7F9FC824606E000BFFFF7F4FCB6
:101B9000A0EB0A0064284ED8DBF80000C005F5D59C
:101BA000E06801280AD008B1052813D0286A20F07F
:101BB00001002862286A20F0040002E0286A40F050
:101BC00001002862E06841F2883B98B1FFF7D4FC3D
:101BD00082460BE0286A40F004002862EEE700BF6E
:101BE000FFF7CAFCA0EB0A0159455AD8286A8007BA
:101BF000F6D50CE0FFF7C0FC824605E0FFF7BCFC21
:101C0000A0EB0A0159454CD8286A8007F6D41FB1C9
:101C1000E86920F08050E861E06988B36968C1F341
:101C20008101022944D00228C6F8608004D0FFF761
:101C3000A3FC044638E034E0FFF79EFC074604E0CE
:101C4000FFF79AFCC01B02282BD828688001F7D424
:101C5000206AB0F5803F05D16868A16820F40030A3
:101C600008436860D4E908010843696821F47411E5
:101C700008436860C6F86090FFF77EFC044606E003
:101C800025E000BFFFF778FC001B022809D8286870
:101C90008001F7D51BE000BFFFF76EFC001B022898
:101CA00002D90320BDE8F88F28688001F4D40EE043
:101CB0000128F7D06868226A00F48031914204D18B
:101CC000616A00F47010884201D00120EAE7002028
:101CD000E8E7000000100240000042428004424257
:101CE00038000020007000407047704710B50400B5
:101CF00003D094F83D0010B107E0012010BD002092
:101D000084F83C00204600F01FF8022084F83D00D3
:101D1000211D206801F040F9012084F8460084F874
:101D20003E0084F83F0084F8400084F8410084F8C5
:101D3000420084F8430084F8440084F8450084F8A5
:101D40003D00002010BD000008B50068064988422B
:101D500008D10648C16941F00401C161C06900F0C1
:101D60000400009008BD0000000800400010024080
:101D700090F83D10012901D001207047022180F820
:101D80003D100168CA6842F00102CA6000680B4950
:101D9000884208D0B0F1804F05D00949884202D06E
:101DA0000849884204D1816801F00701062903D05F
:101DB000016841F00101016000207047002C0140E2
:101DC000000400400008004070472DE9F04104463F
:101DD0000068C66805694FF00007A90713D5B10769
:101DE00011D5F91E016101202077206880698007E4
:101DF000204602D0FFF7E8FF04E000F07EF820461E
:101E000000F010F92777680716D5700714D52168F8
:101E10006FF004000861022020772068806910F4C8
:101E2000407F204602D0FFF7CFFF04E000F065F8C6
:101E3000204600F0F7F82777280715D5300713D587
:101E400021686FF008000861042020772068C069CD
:101E50008007204602D0FFF7B7FF04E000F04DF8FE
:101E6000204600F0DFF82777E80616D5F00614D5EF
:101E700021686FF010000861082020772068C06991
:101E800010F4407F204602D0FFF79EFF04E000F0F0
:101E900034F8204600F0C6F82777E80708D0F007A6
:101EA00006D021686FF001000861204600F042F979
:101EB000280608D5300606D521686FF08000086135
:101EC0002046FFF711FF680608D5700606D5216881
:101ED0006FF040000861204600F036F9A8060AD5E8
:101EE000B00608D521686FF0200008612046BDE8E3
:101EF000F041FFF7FABEBDE8F081704770B50446C7
:101F000090F83C0000260D4601280FD0012084F8EF
:101F10003C006AB1042A1DD0082A2FD00C2A3FD0D9
:101F20000126002084F83C00304670BD022070BDC0
:101F3000206801F07BF82068816941F00801816127
:101F40002068816921F004018161206881692A6922
:101F5000114311E0206801F091F82068816941F493
:101F6000006181612068816921F48061816120685C
:101F700081692A6941EA02218161D2E7206801F082
:101F8000A9F82068C16941F00801C1612068C169F0
:101F900021F00401C1612068C1692A69114311E07F
:101FA000206801F0C3F82068C16941F40061C16193
:101FB0002068C16921F48061C1612068C1692A6912
:101FC00041EA0221C161ACE710B5040003D094F8E6
:101FD0003D0010B107E0012010BD002084F83C0056
:101FE000204600F01EF8022084F83D00211D2068E4
:101FF00000F0D2FF012084F8460084F83E0084F807
:102000003F0084F8400084F8410084F8420084F8DE
:10201000430084F8440084F8450084F83D00002023
:1020200010BD70477047000010B50446022249B148
:1020300004290ED0082913D094F84100012816D0A5
:10204000012010BD94F83E000128F9D184F83E200B
:102050000FE094F83F000128F2D184F83F2008E017
:1020600094F840000128EBD184F8402001E084F886
:1020700041200122206800F0CBFF0F4920688842F0
:1020800003D1426C42F4004242642068884208D086
:10209000B0F1804F05D00949884202D008498842F2
:1020A00004D1816801F00701062903D0016841F0DD
:1020B00001010160002010BD002C0140000400401F
:1020C0000008004030B504460D460068002200F0CC
:1020D0009FFF174B41F2111120688A10984209D1D5
:1020E000036A0B4206D1036A134203D1436C23F403
:1020F000004343642068036A0B4206D1016A11421F
:1021000003D1016821F00101016001203DB1042DDE
:1021100008D0082D09D084F84100002030BD84F893
:102120003E00FAE784F83F00F7E784F84000F4E760
:10213000002C014000680349884201D1FFF722BA10
:102140007047000000080040704770B5040004D0DC
:1021500094F84100002510B106E0012070BD84F81C
:102160004050204600F023F8242084F841002068E5
:10217000C16821F40051C160204601F07FF8206859
:10218000016921F4904101612068416921F02A012F
:1021900041612068C16841F40051C160656420203C
:1021A00084F8410084F842006563002070BD7047E8
:1021B00090F84230202B01D00220704721B11AB193
:1021C0000023036301F0B6B8012070472DE9F843FE
:1021D000044690F84100984616460D46202802D045
:1021E0000220BDE8F88385B17EB100206064212023
:1021F00084F84100FFF7C0F9A6848146E684A06810
:102200002027B0F5805F02D003E00120E9E72069D4
:1022100010B12E4600250EE000260CE0802120465D
:1022200001F0A3F8A8B9C6B116F8010B21684860FF
:10223000E08C401EE084E08C4B464FF00002CDF86D
:1022400000800028EAD14FF04001204601F08DF8CF
:1022500040B184F841700320C3E735F8020BC0F3A6
:102260000800E3E784F841700020BAE7FEE70000C9
:1022700070B501220B4D140221462846FFF777F96D
:102280000122560231462846FFF771F900223146F5
:102290002846FFF76CF921462846BDE87040002229
:1022A000FFF765B9000C014070B50D4D4FF4807417
:1022B000002221462846FFF75AF9660000223146DF
:1022C0002846FFF754F9012221462846FFF74FF927
:1022D00031462846BDE870400122FFF748B90000AA
:1022E000000C014070B5094C012251022046FFF755
:1022F0003EF90122150229462046FFF738F9294602
:102300002046BDE870400022FFF731B9000C0140C3
:10231000FEF7F2BF10B5FFF7FBFF0848C07838B1F1
:10232000A02001F080F8C020BDE8104001F07BB88B
:10233000A12001F078F8C820F6E700008C380020D2
:1023400004480178891CC9B201700F2901D9012103
:1023500001707047C00000207CB514460D4606464B
:102360006B4606224321682000F0CAF900280BD1F1
:10237000BDF8001049BA3180BDF8021049BA298071
:10238000BDF8041049BA21807CBD000070B50D4C29
:102390000025C4F8A8510C48016821F4704101607F
:1023A000016841F440510160C4F8AC51022004F5C9
:1023B000D47403F01DF901202060022003F018F905
:1023C000256070BD00802142040C014030B585B00D
:1023D000002002900D48816941F008018161806907
:1023E0004FF4406400F0080004900120CDE9004063
:1023F0000320074D039069462846FEF7C3FF0122DC
:1024000021462846FFF7B3F805B030BD0010024062
:10241000000C014070B50D4C0025C4F8A8510C48C3
:10242000016821F470410160016841F4405101608C
:102430000126C4F8AC61022004F5D47403F0D8F886
:102440002660022003F0D4F8256070BD0080214290
:10245000040C01402DE9F04781461748002401682B
:1024600021F470410160016841F400410160134EA4
:10247000254627464FF00108C6F8A871022003F050
:10248000B7F8C6F8A8816006040ED6F82C0108B18A
:10249000641CE4B2022003F0ABF86D1CEDB2082D11
:1024A000EAD3B9F1000F04D0FFF770FF2046BDE872
:1024B000F087FFF7AFFFF9E7040C014000802142ED
:1024C0002DE9F04106461248016821F4704101608F
:1024D000016841F4405101600E4C0027C4F8A87116
:1024E0003D464FF00108F009C4F8AC017006060E35
:1024F000C4F8A881022003F07BF8C4F8A871022078
:1025000003F076F86D1CEDB2082DECD3BDE8F08138
:10251000040C01400080214270B50D48016821F48F
:1025200070410160016841F440510160094C012093
:10253000C4F8AC01C4F8A801022004F5D47403F077
:1025400057F800256560022003F052F8256070BD41
:10255000040C0140008021420E4810B5016821F4AE
:1025600070410160016841F4405101600A4C002053
:10257000C4F8A801C4F8AC01022004F5D47403F037
:1025800037F8012020606060BDE81040022003F0B1
:102590002FB80000040C01400080214270B51348A0
:1025A0000024016821F470410160016841F4004198
:1025B00001600F4D0126C5F8AC61022003F018F848
:1025C000C5F8A861022003F013F807E0641CE4B228
:1025D000FA2C03D9FFF7C0FF012070BDD5F82C01FC
:1025E0000028F3D1C5F8A80170BD0000040C01401B
:1025F0000080214210B5FFF7E9FE80216B2000F03A
:102600000AF9642002F0F2FF00216B2000F003F9C8
:10261000032000F0CCF8002000F0C4F8322000F0D5
:10262000E3F80021382000F0F6F800216A2000F0DD
:10263000F2F80021232000F0EEF88021372000F08E
:10264000EAF8752000F03EF8682801D0012010BD9E
:1026500001216B2000F0DFF800216C2000F0DBF896
:10266000322000F0C1F8002010BD00003EB502AAE3
:1026700001A96846FFF770FEBDF9003040F6B83496
:10268000012200210E48A34201DD027014E040F651
:10269000B834E34202DA427001700EE00378427807
:1026A00033EA020402D0017001203EBD9A4302D0F9
:1026B000417002203EBD0170417000203EBD00000F
:1026C000F801002010B50446FFF726FFD020FFF7E1
:1026D000F7FEFFF763FF2046FFF7F2FEFFF75EFF0E
:1026E000FFF71AFFD120FFF7EBFEFFF757FF00209F
:1026F000FFF7B0FE0446FFF72FFF204610BD000095
:102700002DE9F0411D4614460F460646FFF704FF2B
:102710007006000EFFF7D4FEFFF740FF20B1FFF771
:102720001BFF0120BDE8F0813846FFF7C9FEFFF727
:1027300035FFFFF7F1FE012000EB4600C0B2FFF7C6
:10274000BFFEFFF72BFF09E0012C0DD05FF0010069
:10275000FFF780FE641E05F8010BE4B2002CF3D1F4
:10276000FFF7FAFE0020DDE70020F1E73EB5044662
:1027700002AA01A9684605F0FDFE20460099FDF772
:10278000F8FE0649884201D902203EBD044988422C
:1027900001DD01203EBD00203EBD00000000A0C1C3
:1027A0000000A041C006010E1C2000F034B8C00695
:1027B000010E1B2000F02FB8BC2801D3012110E02E
:1027C000622801D302210CE02A2801D3032108E06A
:1027D000142801D3042104E00A2801D3052100E0D4
:1027E00006211A2000F017B810B504464FF47A708D
:1027F000844201D9044602E0042C00D20424B0FB38
:10280000F4F0401EC1B2192000F005F86008BDE8E0
:102810001040FFF7D1BF70B50C460546FFF77CFEB0
:10282000D020FFF74DFEFFF7B9FE50B92846FFF75D
:1028300047FEFFF7B3FE2046FFF742FEFFF7AEFE6E
:1028400018B1FFF789FE012070BDFFF785FE00205B
:1028500070BD2DE9F0411E4615460F460446FFF7B0
:102860005BFE6006000EFFF72BFEFFF797FE60B9D8
:102870003846FFF725FEFFF791FE00240CE0305D9F
:10288000FFF71EFEFFF78AFE20B1FFF765FE01206D
:10289000BDE8F081641CE4B2AC42F0D3FFF75CFE0B
:1028A0000020F5E71CB5002006F01CFF2C4CE06171
:1028B000012009F07FFA6060002208210A2006F05A
:1028C000A5FE206200220821052006F09FFE60621E
:1028D000244A0021244806F075FFA060214A002107
:1028E0002432224806F06EFFE0601E4A0021483282
:1028F0001F4806F067FF20611A4A00216C321D480C
:1029000006F060FF6061174A002190321A4806F015
:1029100059FFA06108B119A000E019A0616909B1CF
:1029200016A100E016A1CDE90010206908B113A39B
:1029300000E013A3E06808B110A200E010A2A068B4
:1029400008B10EA100E00EA10F4800F0C7FD09F08C
:10295000C1F901460DA000F0C1FD012020701CBD91
:1029600000000020DCC90008B92B0008592B000822
:102970000D2C00088D2B0008652C00084F4B000023
:102980004641494C0000000038ED00085B465254B7
:102990004F535D206672656520686561703A202539
:1029A000752062797465730D0A000000094808B546
:1029B000816941F020018161816901F0200100916C
:1029C000816941F004018161806900F00400009098
:1029D00008BD000000100240FEE7FEE770B50024CD
:1029E00004F1B000C0B200F01EFD002000F01BFD9D
:1029F000102000F018FD0025002000F02BFD6D1CBC
:102A0000EDB2802DF8D3641CE4B2082CE8D370BD7D
:102A100010B5AE2000F007FD202000F004FD1020CE
:102A200000F001FDB02000F0FEFCC82000F0FBFC2F
:102A3000002000F0F8FC102000F0F5FC402000F031
:102A4000F2FC812000F0EFFCFF2000F0ECFCA12064
:102A500000F0E9FCA62000F0E6FCA82000F0E3FC72
:102A60003F2000F0E0FCA42000F0DDFCD32000F0CB
:102A7000DAFC002000F0D7FCD52000F0D4FCF020D8
:102A800000F0D1FCD92000F0CEFC222000F0CBFCDD
:102A9000DA2000F0C8FC122000F0C5FCDB2000F0BA
:102AA000C2FC202000F0BFFC8D2000F0BCFC1420F4
:102AB00000F0B9FCAF2000F0B6FCBDE81040FFF715
:102AC0008DBF10B58D2000F0AEFC102000F0ABFCE7
:102AD000BDE81040AE2000F0A6BC10B58D2000F07F
:102AE000A2FC142000F09FFCBDE81040AF2000F0D5
:102AF0009ABC20BF00BF704730B585B0002002905F
:102B00000F48816941F00801816180694FF4407488
:102B100000F0080004900120CDE900400320094D99
:102B2000039069462846FEF72DFC012221462846DF
:102B3000FEF71DFDC82002F059FD05B030BD0000B4
:102B400000100240000C014000224FF48051014867
:102B5000FEF70DBD000C014006A1012002F042FC71
:102B600007F0EAFB08B102F00FFB0A2006F008FDAF
:102B7000F6E700005B5441534B5D20627574746F3F
:102B80006E732073746172746564000004A1012087
:102B900002F028FC02F07CFB012006F0F1FCF9E7D2
:102BA0005B5441534B5D2062757A7A657220737471
:102BB00061727465640000000CA1012002F012FC37
:102BC000104C4FF480650521E06906F05DFD40B9C9
:102BD00002F050FD29460C48FDF75DFBE06906F068
:102BE000CDFD102006F0CCFCEDE700005B54415316
:102BF0004B5D20646973706C6179207374617274C9
:102C00006564000000000020243A00200BA1012090
:102C100002F0E8FB00240F4D287820B10E4A0F493E
:102C20000F4805F0A7FC641CA4B2642C02D3002456
:102C300007F0A8FF052006F0A3FCEDE75B54415325
:102C40004B5D2073656E736F727320737461727461
:102C500065640000DC010020F4010020F001002088
:102C6000EC0100208AB057A1012002F0BBFB06F066
:102C700095FC80464FF47A7B4FF00009DFF85CA1A9
:102C800006F08CFCA0EB0800584505D3FEF774FC59
:102C900008F0B4FA08F57A7807F01CFB07F04CFB53
:102CA00008B101F07BFC07F0C9FFBAF8000001048D
:102CB0004FD5C0F30D004A4901F8009049A148489A
:102CC000FDF7F4FAC8B149480068FDF7DBFE044699
:102CD00047480D460068FDF7D5FE064645480F46B5
:102CE0000068FDF7CFFE02460B4643A0CDE9006722
:102CF000CDE9024500F0F2FB25E04BA13848FDF795
:102D0000D5FA40B14AA000F0E9FB012240214F482A
:102D1000FEF72DFC17E04EA13148FDF7C7FA40B190
:102D20004DA000F0DBFB002240214848FEF71FFCCD
:102D300009E0052250A12A48FDF7E7FA68B12849C1
:102D40004FA000F0CBFBC8212548FDF7A4FAAAF854
:102D50000090642006F014FC92E704A805A906AAD6
:102D600007ABCDE90032CDE9021008AB09AA4AA1B0
:102D70001B48FDF7E7FA062803D04DA000F0AEFB94
:102D8000E1E7584C0998E07108994A1EA271079A28
:102D9000D2B2627100F5FA60C9B280B2FEF783FA6E
:102DA000401E20710698A07005996170049A2270E7
:102DB0008DE80700DDE90732E1794BA000F08EFBDA
:102DC000C1E700005B5441534B5D20737973746518
:102DD0006D2073746172746564000000BE00002091
:102DE000B83700204441544100000000F4010020A5
:102DF000F0010020EC0100205B4D5055363035309D
:102E00005D2050697463683A20252E31662C20526B
:102E10006F6C6C3A20252E31662C205961773A2050
:102E2000252E31660D0A00004C45445F4F4E0000D0
:102E3000436F6D6D616E642052656365697665648C
:102E40003A204C4544204F4E210D0A000008014015
:102E50004C45445F4F464600436F6D6D616E642084
:102E600052656365697665643A204C4544204F4657
:102E700046210D0A0000000054494D453A0000006B
:102E8000556E6B6E6F776E20436F6D6D616E643A39
:102E90002025730D0A00000054494D453A25642C45
:102EA00025642C25642C25642C25642C25640000C5
:102EB00054696D6520466F726D6174204572726F42
:102EC0007221205573652054494D453A59592C4D6E
:102ED0004D2C44442C68682C6D6D2C7373230D0AA3
:102EE00000000000A901002054696D652053796E2F
:102EF00063204F4B3A20253034642D253032642D29
:102F00002530326420253032643A253032643A2547
:102F10003032640D0A00000010B509F057FB01289B
:102F200003D0BDE8104008F02FBF10BD30B58FB002
:102F300028216846FDF7AFF914210AA8FDF7ABF97F
:102F400001210804CDE90010002402940225049117
:102F5000CDE907504FF4E01009906846FEF734FDC4
:102F600008B172B6FEE70F20CDE90A054FF4806084
:102F7000CDE90C4002210AA80E94FEF7DBFB0028E5
:102F800001D072B6FEE70FB030BD70470148FEF7C2
:102F90001CBF000054020020F0B50268194B1A4C07
:102FA0001A4D4FF08047984205D0B84203D0A04256
:102FB00001D0A84203D122F070064A6832439842F9
:102FC00005D0B84203D0A04201D0A84203D122F4D8
:102FD0004074CA6822434C6922F080022243026096
:102FE0008A68C2620A688262984201D109690163F3
:102FF000012141610169C90703D0016921F0010183
:103000000161F0BD002C01400004004000080040B8
:1030100010B501F01F030121046A99408C4304623A
:10302000016A9A401143016210BD000030B5036A85
:10303000026A22F0010202624268846924F0730588
:103040000C682C4323F002058B682B430A4DA842E1
:103050000BD123F00805CB6822F440722B434D6955
:1030600023F0040315438A692A4342608461496856
:103070004163036230BD0000002C014030B5026A9C
:10308000036A23F010030362436884690D6824F423
:10309000E64444EA05248D6822F0200242EA051243
:1030A0000B4DA8420ED1CD6822F0800242EA0512F3
:1030B0004D6923F4406343EA85038D6922F04002A1
:1030C00043EA85034360846149688163026230BDDD
:1030D000002C014030B5036A026A22F48072026259
:1030E0004268C46923F4007324F073050C682C4310
:1030F0008D6843EA05230C4DA8420ED1CD6823F418
:10310000006343EA05234D6922F4405242EA051266
:103110008D6923F4806342EA05124260C461496804
:10312000C163036230BD0000002C014030B5046A69
:10313000026A22F4805202624268C3690D6823F475
:10314000E64343EA05238D6824F4005444EA053439
:10315000064DA84204D14D6922F4804242EA85120C
:103160004260C36149680164046230BD002C0140C3
:103170002DE9F0418CB00D46804600241C216846A4
:103180000994FDF788F82548C16941F00101C16142
:10319000C16901F001010B91816941F00401816174
:1031A000816901F004010B91816941F001018161A4
:1031B000806900F001000B901948416821F44071CA
:1031C00041F0E06141F4807141604FF4004602201B
:1031D000CDE907600320134F0A9007A93846FEF790
:1031E000D1F8002231463846FEF7C1F90E48F10306
:1031F0000160C0E90154C0E90384FEF7E5FE7020D8
:1032000000901920CDE90104002269460648049483
:10321000FEF774FE0CB0BDE8F08100000010024023
:103220000000014000080140243E002001680C31EC
:1032300051E8002F22F4907241E80023002BF5D1D1
:103240000168143151E8002F22F0010241E8002307
:10325000002BF5D1016B012909D101680C3151E82E
:10326000002F22F0100241E80023002BF5D120218D
:1032700080F84210002101637047000070B50446D9
:1032800000680169E26821F440511143016121693C
:10329000A0680843616908432168CA6841F20C6369
:1032A0009A430243CA6020684169A26921F44071CF
:1032B000114341611E492068884202D1FEF74EFB4E
:1032C00001E0FEF73BFB00EBC00101EB0012606880
:1032D00064218000B2FBF0F3B3FBF1F36FF018064A
:1032E0007343B2FBF0F5B2FBF0F605EB8305322336
:1032F00003EB0515B5FBF1F5B6FBF1F605F0F005AE
:1033000005EB0615B2FBF0F6B2FBF0F0B0FBF1F006
:103310006FF01802504306EB800003EB0010B0FB87
:10332000F1F0216800F00F002844886070BD0000B3
:103330000038014081628285C285002141642221DA
:1033400080F84210016921B10168CA6842F48072B4
:10335000CA6001684A6942F001024A610068C168B6
:1033600041F02001C160002070472DE9F8439846E4
:1033700017460D460446089E24E0701C22D0FEF736
:10338000FBF8A0EB0800B0421AD8CEB12068C168A3
:10339000490717D5802D15D0402D13D00168C9439A
:1033A00009070FD401680025406800902046FFF708
:1033B0003DFF0820606484F840500120BDE8F88398
:1033C0000320FBE72068006835EA000004D00020F5
:1033D000B842D2D00020F1E70120F9E70F4810B53C
:1033E00000680168C943890613D440680C49C2B219
:1033F000088803040DD4232A0CD0C0F30D03074C16
:10340000401C483480B2E2540880C72801D900200B
:10341000088010BD40F40040FAE70000703700203B
:10342000BE000020FEE710B50446FEF721FF78201D
:1034300000F028F8FEF756FF002000F023F8FEF712
:1034400051FF204600F01EF8FEF74CFFBDE810408B
:10345000FEF72ABF10B50446FEF70AFF782000F0F9
:1034600011F8FEF73FFF402000F00CF8FEF73AFF9E
:10347000204600F007F8FEF735FFBDE81040FEF7E4
:1034800013BF00002DE9F041134F05464FF480763D
:10349000002231463846FEF76AF800244FF40078DF
:1034A000280601D5012200E0002241463846FEF7F9
:1034B0005EF86806050E012231463846FEF757F8D9
:1034C000002231463846FEF752F8641CE4B2082C5C
:1034D000E6D3BDE8F0810000000C01400FB4054BBD
:1034E00010B503A9044A029800F042FC10BC5DF834
:1034F00014FB0000416C0008440200200FB4084B8C
:1035000010B504A902AA039800F032FC044602A9EF
:10351000002000F0C4FF204610BC5DF814FB000042
:103520009F440008014B024A00F022BC416C000895
:1035300044020020490050EAC12018BF04204A0D6F
:1035400018BF40F0010040F2FF72B2EB515F08BFBC
:1035500040F00200012808BF052070470907090E46
:10356000002804DB00F1E02080F80014704700F030
:103570000F0000F1E02080F8141D70472DE9F74F8F
:10358000144694B00021C4E902111599079121F065
:103590000045C9498D4206DC1599C4E9000117B000
:1035A0000020BDE8F08FC549DFF814A3A9423CDD37
:1035B0000799C44E0029C44FC44A1599534619DDD2
:1035C000FDF7F7F8554506D0C14AC24BFDF7F1F8B3
:1035D000C4E900010AE04FF0D352BE4BFDF7E9F811
:1035E00032463B46FDF7E5F8C4E9000117B001207B
:1035F000BDE8F08FFDF73CF8554506D0B44AB54B11
:10360000FDF736F8C4E900010AE04FF0D352B14BA0
:10361000FDF72EF832463B46FDF72AF8C4E90001D3
:1036200017B04FF0FF30BDE8F08FAB49A9421599B4
:1036300078DB21F0004183468846A84AA84BFDF775
:10364000BEF80022A74BFDF713F8FDF7FCF909902F
:10365000FDF7BBF906460F469C4A5346FDF7AFF807
:1036600043465A46FDF7A8F880468A46984A994B41
:1036700030463946FDF7A3F82A0D01250B92424644
:103680005346FDF799F8032DC4E9000139D00B9892
:10369000C1F30A51401A05EB45111139814230DA64
:1036A0009148C346784400EB0510CDF80CA00C906F
:1036B000D0E9002330463946FDF781F802460B4633
:1036C0000491069058460399FDF773F880468A46A0
:1036D00002460B4658460399FDF76BF8049B069A81
:1036E000FDF767F883460C9803913946D0E9022329
:1036F0003046FDF764F85A46039BFDF75AF86D1CF7
:10370000BDE707980028A2BF099817B0BDE8F08F61
:10371000616881F000416160099817B04042BDE8DE
:10372000F08FFFE784461598C1F31301C0F30A50E8
:10373000A0F2F5304FEA601800F01F06C6F1200035
:10374000139000200690079041F4801E05206D46DE
:1037500076B1664A08EB00017A4452F8213002EB58
:103760008101B3404A68139922FA01F1194305E037
:103770005F4908EB0002794451F82210A1FB0E27A3
:10378000A1FB0C131A449A4234BF0123002303EB1C
:10379000070A05EB8003D3E901B70F448F4234BF1A
:1037A0000121002193448B4411B1934502D903E0D8
:1037B000934501D2012100E00021C3E901B7514442
:1037C00045F82010011EA0F10100C1DC0298059F00
:1037D00000F10050800F12900298DDE9035680003E
:1037E000FDF7F3F8834628460D91FDF7FCFC6FF0DA
:1037F0001D02FDF7C5F8CDE90E013046FDF7F3FCDB
:103800006FF03D02FDF7BCF880468A463846FDF76A
:10381000EAFC6FF05D02FDF7B3F8074642465346F7
:103820001191FCF725FFDDE90E23FCF721FF5A4635
:103830000D9BFCF71DFF00250E465A4628460D9BA2
:10384000FCF7B7FFDDE90E23FCF7B3FF4246534612
:10385000FCF7AFFF3A46119BFCF7AEFFDFF898A0EC
:10386000244A5346FCF7ABFF07468846234A244BBD
:1038700031462846FCF7A3FF3A464346FCF7F8FEDC
:10388000074688464FF0A842534631462846FCF783
:1038900096FF3A464346FCF7EBFE159A12F0004FAE
:1038A00004D0129A81F0004152421292C4E9000100
:1038B000129817B0BDE8F08FFB21E93F7CD9024098
:1038C000FB21F93F7370032E8A19A33B000040547B
:1038D0003163621A61B4D03DFB21394183C8C96D9F
:1038E000305FE43F0000E03F60B50000DCB4000062
:1038F000BEB40000182D4454FB21F93D3326A61117
:10390000460B113C2DE9FF4D21F0004807460C46BF
:10391000B8F1795F08DAFDF796F8002801BF0020BA
:10392000324904B0BDE8F08D3A46234610461946A8
:10393000FCF745FF054602462D480E460B4606217C
:10394000784400F05DF82A463346FCF738FFDDE99D
:10395000022382468B4638462146FCF730FF044658
:103960000F4652465B4628463146FCF728FF224662
:103970003B46FCF71EFF07468A464FF0FF322846BB
:103980003146FCF7FDFF1B4A90450ADA3A4653469A
:10399000FCF70FFF04B00022BDE8F04D134BFCF71D
:1039A0000BBF154A4245A8BFA8F500154FF000040B
:1039B000B8BF124D22462B46FCF7FBFE0646884652
:1039C00022462B4600200949FCF7F3FE04460D462B
:1039D0003A46534630464146FCF7EBFE04B02246D9
:1039E0002B46BDE8F04DFCF7E7BE00000000F03FBD
:1039F0008CB200003333D33F0000E93F0000D23FD8
:103A00002DE9F0414F1E00EBC7010446D1E900014A
:103A100015461E4637F006020DD02A463346FCF7FF
:103A2000CEFE7F1E04EBC703D3E90023FCF720FE84
:103A300037F00602F1D1022F25D0042F13D0062F24
:103A400018BFBDE8F0812A463346FCF7B8FED4E93A
:103A50000A23FCF70DFE2A463346FCF7B0FED4E9F4
:103A60000823FCF705FE2A463346FCF7A8FED4E9F6
:103A70000623FCF7FDFD2A463346FCF7A0FED4E9F9
:103A80000423FCF7F5FD2A463346FCF798FED4E9FB
:103A90000223FCF7EDFD2A463346FCF790FED4E9FD
:103AA0000023BDE8F041FCF7E3BD00002DE9FF4D28
:103AB000054621F0004084B00C46B0F1795F0BDA86
:103AC0002846FFF737FD042808BF00F071F82846A4
:103AD00008B02146BDE8F08D2A460B461046FCF79B
:103AE0006EFE06460F462A462346FCF768FE8046D1
:103AF00026488A4632463B4605217844FFF780FF38
:103B000083461098029160B3214A224B40465146A9
:103B1000FCF755FECDE900015A4640465146029B4E
:103B2000FCF74DFE82468846DDE906014FF0FF3284
:103B3000FCF726FF52464346FCF73BFE32463B4627
:103B4000FCF73DFEDDE90623FCF733FEDDE900234B
:103B5000FCF72FFE08B02A462346BDE8F04DFCF7DF
:103B60002BBE0B465A4630463946FCF728FE084A1B
:103B7000084BFCF77DFD42465346FCF720FE08B09B
:103B80002A462346BDE8F04DFCF772BDD2B10000D5
:103B9000495555555555C5BF0122FCF7F1BEFCF7F7
:103BA00067BD0022134610461146FCF77ABE00009E
:103BB000024A00201107FCF7E3BE000001FDFFFFF1
:103BC00002E008C8121F08C1002AFAD170477047E6
:103BD000002001E001C1121F002AFBD17047000044
:103BE0000149086070470000500200202DE9FF5F86
:103BF00082B00021DDE90430020DDDF840B003435E
:103C000018D044F61050A2F2FF3242431514119816
:103C100001281FD0A5EB0B00401C5FEA000A4FF003
:103C200000064E4FDFF83891B046504615D5CAF120
:103C3000000413E0119801244AA3012801D16FEA7E
:103C40000B010298119AC0E90031C0E9024206B0A6
:103C5000BDE8F09FCBF10000DFE704460021404AB9
:103C6000491842EB0450CDE9001012E0E00707D0FC
:103C700032463B4640464946FCF7A1FD8046894610
:103C800032463B4610461946FCF799FD06460F465C
:103C90006410002CEAD1DDE90401DDE90023BAF16A
:103CA000000F06DAFCF78BFD42464B46FCF787FD1A
:103CB00005E0FCF7F6FD42464B46FCF7F2FD0446F4
:103CC0000E460022284BFDF777F803D84FF0FF305F
:103CD000014607E00022254B20463146FCF7C8FC90
:103CE000FDF752F8102409E0002C0ADB0A22002319
:103CF000FCF722FF039B30321A55641E50EA010282
:103D0000F2D1641C039AC4F111031444119A012ADC
:103D100003D0012208430DD10AE0084304D000205B
:103D20004FF0110B119072E7A3EB0B056D1E0DE028
:103D30005B4504DD4FF0000205F1010504E003DA04
:103D40004FF00002A5F10105002AECD0029811996C
:103D5000C0E90231C0E9004579E7000000001440E5
:103D60000000F03F300000000000F0430000E03FA2
:103D70002DE9FF4F95B09B468946064600250FE288
:103D8000252877D100242746F84A0121059400E030
:103D9000044316F8013F203B01FA03F01042F7D12B
:103DA00030782A2811D06FF02F033078A0F130023C
:103DB000092A16D8059A44F0020402EB820203EBAA
:103DC00042021044761C0590EFE759F8042B059247
:103DD000002A03DA504244F40054059044F00204EF
:103DE000761C30782E2816D116F8010F44F0040402
:103DF0002A280DD06FF02F023078A0F13003092B64
:103E000009D807EB870302EB4303C718761CF3E7D7
:103E100059F8047B761C30786C280FD006DC4C28CF
:103E200017D068280DD06A2814D104E0742810D067
:103E30007A280FD10DE044F400140AE044F4801411
:103E400001E044F440147278824202D104F58014F7
:103E5000761C761C307866280BD013DC582877D077
:103E600009DC002875D04528F6D04628F4D047282C
:103E70001AD19DE118E0632835D0642879D06528EF
:103E800012D195E1702873D008DC6728F1D0692839
:103E90006FD06E280DD06F2806D1B5E073282CD0D6
:103EA000752875D0782874D05A46179990476D1C9C
:103EB00075E1C4F30250022809D003280DD0D9F8C7
:103EC000001004280DD00D6009F1040967E1D9F84C
:103ED0000010EA17C1E90052F6E7D9F800100D808A
:103EE000F2E70D70F0E719F8041B8DF800100020C0
:103EF0008DF80100EA46012003E059F804AB4FF0C9
:103F0000FF3061074FF0000102D40DE008F101011C
:103F10008846B9420FDA8045F8DB1AF80810002904
:103F2000F4D108E008F1010188468142FADB1AF871
:103F300008100029F6D105985B46A0EB080721463A
:103F40003846179A00F094FA284400EB080507E079
:103F50004DE029E10DE01AF8010B5A4617999047F8
:103F6000B8F10108F7D25B4621463846179A13E1AB
:103F700042E00A220092C4F302524FF0000A022AE1
:103F800008D059F804CB032A4FEAEC710AD00DE0AF
:103F900029E02AE009F1070121F00702F2E802C155
:103FA000914609E00FFA8CFC4FEAEC71042A03D128
:103FB0004FFA8CFC4FEAEC71002907DA0A4600211F
:103FC000DCF1000C61EB02012D2202E0220504D598
:103FD0002B228DF80420012203E0E20701D02022E9
:103FE000F7E7904659E00A2102E010220DE0102187
:103FF0004FF0000A00910BE010224FF0000A44F04D
:1040000004040827009203E008224FF0000A0092FF
:10401000C4F30252022A05D059F804CB0021032A26
:1040200008D009E009F1070121F00702F2E802C116
:10403000914605E01FFA8CFC042A01D10CF0FF0C1C
:104040004FF00008220728D5702806D0009B83F087
:10405000100353EA0A0305D00EE040228DF8042035
:10406000012208E05CEA010206D030228DF804202B
:104070008DF8050002229046009B83F0080353EA66
:104080000A030AD15CEA010201D1620705D5302298
:104090008DF804204FF001087F1E582804D034A06A
:1040A00003900EA802900DE036A0F9E75346604653
:1040B000009AFCF741FD84460398825C0298401EFA
:1040C000029002705CEA0100F0D1029806A9081A79
:1040D00000F1200A600702D524F4803400E00127B3
:1040E000574502DDA7EB0A0000E0002000EB0A01C3
:1040F000009005984144401A0590E00306D45B46C1
:104100002146179A059800F0B3F90544002706E008
:1041100001A85A46C05D179990476D1C7F1C474502
:10412000F6DBE0030CD55B462146179A059800F0B4
:104130009FF9054404E030205A46179990476D1CBA
:104140000099481E00900029F5DC08E002980299C9
:104150005A460078491C0291179990476D1CBAF194
:104160000001AAF1010AF1DC65E100000928010063
:1041700030313233343536373839616263646566DD
:10418000000000003031323334353637383941429F
:10419000434445460000000000F058F90544761CF1
:1041A000307800287FF4ECAD19B02846BDE8F08FD8
:1041B000620700D4062709F1070222F0070CFCE889
:1041C0000223E14603F000485FEA080C02D00FF238
:1041D000702C0DE05FEA045C02D50FF2682C07E05A
:1041E0005FEAC47C02D00FF2602C01E0AFF2700CE9
:1041F0004FF0FF3823F00043CDF850C065280CD0B5
:1042000006DC452809D046281DD047283DD13DE091
:10421000662818D067287ED138E00021112F01DBF5
:10422000112000E0781CCDE9000106A90EA8FFF7D7
:10423000DDFCDDE90F010E9A03910021009207F1E8
:10424000010A04914DE04FF000400097CDE90110C4
:1042500006A90EA8FFF7CAFCDDE90F0203920E9B28
:1042600011990022DDF80CA00093049211B9791C79
:1042700000EB010AB7EB0A0004D4C0F1FF3007F1EC
:10428000010A0490AAEB0700019044E0012F00DA34
:1042900001270021112F01DD112000E03846CDE972
:1042A000000106A90EA8FFF7A1FCDDE90F010E9A97
:1042B0000391002104910092BA4621070CD403997E
:1042C000514500DA8A46BAF1010F05DD009AAAF1DC
:1042D0000101515C302908D0B84202DA10F1040F14
:1042E00006DA0121CDE9011015E0AAF10101E9E7A3
:1042F000002805DC049901440491AAEB000102E0C6
:10430000411C514500DD8A460499401A401C019029
:104310004FF000400290200704D40198504501DB83
:10432000CDF8048000208DF84F0002980DF14F0762
:10433000B0F1004F25D02B200E9002984FF00208CC
:1043400000280CDA404202902D200E9007E00A214E
:104350000298FCF7DBFB3031029007F8011DB8F141
:104360000001A8F10108F2DC02980028EFD1791EC3
:104370000E980870307800F0200040F0450007F8F3
:10438000020D12A8C01B00F107081498007800B1B4
:10439000012000EB0A01019801EBE071059841440E
:1043A000401A401E0590E00306D45B462146179A4A
:1043B000059800F05DF805441498007818B15A4645
:1043C000179990476D1CE00324D55B462146179A48
:1043D000059800F04DF805441CE00498002807DB20
:1043E000DDE90301884203DD0098405C179901E094
:1043F000179930205A469047049805F10105401C52
:1044000004900198401E019004D12E205A4617991D
:1044100090476D1CBAF10001AAF1010ADDDC05E04C
:1044200017F8010B5A46179990476D1CB8F1000117
:10443000A8F10108F4DC5B462146179A0598ABE623
:104440002D0000002B000000200000002DE9F041AD
:10445000044600251E461746880404D405E0394664
:104460002020B0476D1C641EF9D52846BDE8F081B8
:104470002DE9F041044600251E469046C80301D5AB
:10448000302700E02027880404D505E0414638465F
:10449000B0476D1C641EF9D52846BDE8F0810A6856
:1044A000531C0B60107070472DE9FE4F07460E46F7
:1044B0000025684602F09EFE00246FF00F0AE846D1
:1044C0004FF0010957F8240056F82410401A00D57F
:1044D0004042FCF76CFA5146FCF7BEF858F824103D
:1044E00011F0FF4F0BD0FCF779F84FF07E51FCF73D
:1044F0003DF80A4920F00040884205DC07E0084901
:1045000008440849884202D309FA04F00543641CB0
:10451000032CD7DB2846BDE8FE8F0000295C0F3E48
:10452000666666C19A99D9000448054B054A8078A9
:104530000549401EC0B206F075B90000E4380020FD
:10454000414E000876DC0008F1CA0008044A00EB7E
:104550004000104402880A8080788870704700000C
:10456000E40000200146054800B50078FF2803D08C
:10457000FFF7ECFF012000BD002000BDD0000020AF
:1045800002F0E8BD044A00EB400010440A880280B3
:104590008978817002F0DEBDE400002070B5144C13
:1045A000A57803F007F8A178002920D0D8B18D4272
:1045B0001DD0104801F038F800216060084600F076
:1045C00071FDA0600C49012000F06CFDE06000214D
:1045D000022000F067FD2061BDE870400322022147
:1045E000064806F075BEBDE8704006F0F3BA70BD2F
:1045F000D0000020A5600008D5AB000884DD0008CD
:1046000002F0A8BD10B50B4C6078401EC0B26070BF
:104610002178022906D108498979012902D108B9EE
:104620000C20607002F060FD6178814200D96070FA
:1046300010BD00006C0100208C380020F8B500206F
:10464000274D8DF8010028462978052240780C294D
:1046500038D2DFE801F037060E10252B2B2B2B2B41
:104660002B2B072408B1802000E02E208DF80000BD
:1046700003E0152400E02A240B221A480178407830
:10468000C900404201EBC0000830C6B231462046A6
:1046900002F0CAF92878022816D0032814D018E0AE
:1046A000382408B15020E1E74120DFE7491FC9B2B3
:1046B000C1EBC1034633DCB210B10B48405CD5E717
:1046C0002D20D3E70020F8BD6A7808A16846FEF7E0
:1046D00015FF334622460121684602F0C7F9F1E78B
:1046E0006C010020E4380020F6CA0008253032684A
:1046F0006875000010B50C4C6078401C607002F0CA
:10470000F3FC6178884201D2002060702078022892
:1047100008D106488079012804D16078002801D1A9
:104720000120607010BD00006C0100208C3800205A
:104730000148007870470000803800200348007A64
:1047400008B1002070470120704700008038002029
:10475000014840787047000080380020084A92786D
:1047600052B1084A0123137009B1002300E0C023AD
:1047700053705060117270470028FCD00047000051
:104780008C380020803800202DE9F0411C4C207826
:10479000002833D0204661784078267A431CC71C15
:1047A000421D002508307EB1042901D2D8B208E0AC
:1047B000082901D2F8B204E0102901D2D0B200E0F9
:1047C000C0B240280FD210E0FB2901D9D8B208E0CE
:1047D000F72901D9F8B204E0EF2901D9D0B200E0FD
:1047E000C0B20A2801D2257000206070207800280D
:1047F00004D16068002801D080476560BDE8F08181
:1048000080380020AFF300800748002101220170AA
:1048100041708270C1700171417181710221017218
:1048200041728272704700008C380020704700008F
:104830002DE9F04D8D4F21F0004A86B005460C461B
:10484000BA452ADBAAEB070028430AD088488245EC
:1048500001DC1AD1CDB106B02846BDE8F04DFFF716
:104860009BB9844A844B2846FBF7A9FF07460E46AE
:10487000824A834B28462146FBF7A1FF06B03A4601
:104880003346BDE8F04DFBF7F3BE0120FFF7A8F972
:1048900006B0BDE8F04DFFF784B97A48824542DAA8
:1048A000BAF1795F0BDA2846FEF744FE042808BF08
:1048B000FFF77EF9284606B02146BDE8F08D2A466E
:1048C0000B461046FBF77BFF834602466E480E46BA
:1048D0000B4606217844FFF793F85A463346FBF718
:1048E0006EFF804669488A465A463346042178441A
:1048F000FFF786F85A463346FBF761FF00223B4636
:10490000FBF7B6FE02460B4640465146FBF7C9FF91
:104910002A462346FBF753FF06B02A462346BDE846
:10492000F04DFBF7A5BE284624F0004100223D468D
:104930003B46FBF741FF4FF0FF32FCF721F80646FC
:10494000024653480F460B4606217844FFF758F8B5
:1049500032463B46FBF733FFCDE900014D48324676
:104960003B4604217844FFF74BF832463B46FBF7C1
:1049700026FF00222B46FBF77BFE83460291304642
:10498000394606F0D9F8804643480D46504517DCB5
:10499000DDE900015A46029BFBF783FF42462B46A6
:1049A000FBF70DFF42462B46FBF762FE0122FBF7A9
:1049B000E7FF304A304BFBF7FCFE304A304B4CE00F
:1049C0004FF0000A52460B464046FBF751FECDE938
:1049D000031052462B4610461946FBF7F0FE3246AE
:1049E0003B46FBF7E9FEDDE90332FBF75AFF0646DB
:1049F0000F46DDE900015A46029BFBF752FF834652
:104A00000091012230463946FBF7BAFF194A1A4B8A
:104A1000FBF7D2FE06460F46012240462946FBF729
:104A2000AFFF5A46009BFBF7CAFE32463B46FBF7F8
:104A3000C0FE06460F46012250462946FBF7A0FF5E
:104A40000E4DDFF858802A464346FBF7B5FE324646
:104A50003B46FBF7B1FE2A464346FBF7ADFE002C72
:104A6000D8BF81F0004106B0BDE8F08D0000F03FF6
:104A70000000F07F075C143326A6913C182D4454A7
:104A8000FB21F93F0000E03F10A2000026A2000039
:104A90009AA10000B0A100003333EF3FFB21E93FB2
:104AA0002DE9F84F04460D4621F00040009173496E
:104AB000814211DC7249884201DC06D12CB12046CA
:104AC0002946BDE8F84FFFF767B86E48002DCCBF08
:104AD0006D496E49BDE8F88F6D49814211DD6D4920
:104AE0008142D8BF4FF0FF366DDD20462946FEF7E4
:104AF00021FD042808BFFFF75BF820462946BDE8E2
:104B0000F88F6549654F25F00045814233DD6449E2
:104B1000814219DD002632464FF080432046294667
:104B2000FBF7A6FD80468A46012220462946FBF770
:104B300027FF00223B46FBF73CFE42465346FBF76D
:104B4000B0FE04460D463EE001260022BA463B4632
:104B500020462946FBF78CFD80460F46002253462F
:104B600020462946FBF725FE42463B46FBF799FEC9
:104B700004460D4627E04B4981421BDDDFF828A1A2
:104B800002260022534620462946FBF718FE002243
:104B90003B46FBF76DFD80460F46002253462046FC
:104BA0002946FBF706FE42463B46FBF77AFE0446E3
:104BB0000D4608E0032622462B4600203B49FBF722
:104BC00070FE04460D4622462B4610461946FBF75A
:104BD000F6FD8B46824602460B46FBF7F0FD074684
:104BE0000246334888460B4606217844FEF708FF04
:104BF00052465B46FBF7E3FD82462E488B463A461B
:104C0000434605217844FEF7FBFE3A464346FBF750
:104C1000D6FD02460B46002E504659460CDAFBF7ED
:104C200027FD22462B46FBF7CAFD01B022462B4644
:104C3000BDE8F04FFBF7C0BDFBF71AFD22462B463F
:104C4000FBF7BDFD1C4A7A4402EBC603D3E90023FF
:104C5000FBF7AFFD22462B46FBF7ABFD174A7A4424
:104C600002EBC603D3E90023FBF7A6FD009A002A56
:104C7000B8BF81F00041BDE8F88F0000000010448B
:104C80000000F07F182D4454FB21F93FFB21F9BFB0
:104C90000000DC3F0000203E0000F33F0000F03F3A
:104CA0000000E63F008003400000F83F0000F0BF36
:104CB000B29F0000709F00000E9F0000D69E000073
:104CC0002DE9F04D9446CCF1000423F000464CEA67
:104CD0000404524F46EAD4749A46884621F00042B2
:104CE000BC4206D8454240EA050442EAD474BC42BC
:104CF00004D9BDE8F04D6246FEF751BFAAF1405518
:104D0000A5F17F6555EA0C040BD0022404EAAA74CD
:104D1000434DDFF810E144EAD87452EA000B04D0A6
:104D20000CE0BDE8F04DFFF7BBBE002C14BF012C1A
:104D3000BDE8F08D022C30D0032C32D056EA0C0B9B
:104D40000AD0BE4220D1BA4209D126F0804622F0D4
:104D500080423346114617E000291ADB25E0DFF8D0
:104D6000C8B0FB44002C04BFDBE90001BDE8F08DB6
:104D7000012C02BFDBE9000181F00041BDE8F08DAC
:104D8000022C0AD0032C0CD0BA4212D1B8F1000F79
:104D90000BDA23482549BDE8F08D28462449BDE8B3
:104DA000F08D28467146BDE8F08D1D482149BDE8CB
:104DB000F08D921B12153C2AC4BF19481D490EDC08
:104DC000BAF1000FBEBF12F13C0F0020014606DB16
:104DD0006246FBF766FD21F00041FFF761FE002C03
:104DE00008BFBDE8F08D012C04BF81F00041BDE893
:104DF000F08D114A114B022C07D0FBF7DAFC2A4642
:104E0000BDE8F04D0A4BFBF7D4BCFBF7D2FC2A46B9
:104E1000BDE8F04D064BFBF7CFBC00000000F07F73
:104E2000182D4454FB2109C09A9E0000FB21F9BFB4
:104E3000FB210940FB21F93F075C143326A6A13C66
:104E40000248006A00B1004702F0A4BFE438002025
:104E50000121FFF783BC0021FFF780BC10B5054B93
:104E6000054A0649064805F069FC07490548886176
:104E700010BD0000D17A0008C1AF0008217F0008F2
:104E800079AF000801B00008E4380020002104E0F8
:104E900000F001021144C9B240080028F8D10846C8
:104EA000704700000249022088700120704700000E
:104EB0003801002010B5094CA06801F0CDFE6078E3
:104EC000FF2808D001210648FFF748FC05490020CB
:104ED0000870012010BD02F08BF8FAE728010020CD
:104EE0000D56000880010020084810B5C078FF2842
:104EF00008D001210648FFF731FC06490020087060
:104F0000012010BD02F0B8F8FAE7000038010020D7
:104F10000D5600088001002010B501210248FFF75E
:104F20001DFC012010BD0000414E000810B50121FC
:104F30000248FFF713FC012010BD0000414E00089D
:104F400010B501210448FFF709FC0449002008704E
:104F500003494870012010BD0D5600088001002053
:104F6000DC01002009494888B0F5FA7F0AD23222D4
:104F7000B0FBF2F202EBC20303EB021200EB4200C1
:104F8000323000E00020488001207047C801002036
:104F9000024902200870002070470000280100200C
:104FA00010B5044C0020606003F078FAA060012086
:104FB00010BD00009C010020024901200870002063
:104FC000704700002801002010B5074C2078012808
:104FD00001D010B103E0002000E00120207003F0B8
:104FE0005DFAA060012010BD9C0100200149012054
:104FF000887070473801002006488178491E11F0FA
:10500000FF01817004D1C178491CC17001218170F8
:1050100000207047DC0100200648C178491E11F0CD
:10502000FF01C17004D10121C1708178491C8170D8
:1050300000207047DC01002010B500F043F805485F
:105040000349C1600449C1610449C16210BD000047
:1050500070DE00089838002080DE000890DE00082E
:1050600070B50E48007888B140F2712148434FF680
:10507000FF710B4E01EAC005002400BF03F00EFAD9
:1050800006EB04110968401AA84201D2012070BD44
:10509000641CE4B2032CF1D3002070BD8C380020D6
:1050A00098380020024A02EB001290689160704725
:1050B00098380020024B9A6299619860704700000E
:1050C000983800202DE9F04186B000242A48009449
:1050D000019402940394816941F004018161816922
:1050E00001F004010491816941F00101816180694D
:1050F00000F0010004902148416821F0E06141F096
:10510000007141600A20FCF7A3FA1D48016821F0F4
:1051100010010160001D016821F010010160001DF7
:10512000016821F010010160001D016821F01001EB
:105130000160134810271430076001250226CDE9CD
:105140000054DFF84080CDE9025669464046FCF73E
:1051500019F904208DE8710069464046FCF712F900
:1051600001AA009782E8700069464046FCF70AF9F8
:1051700006B0BDE8F08100000010024000000140D0
:10518000000401400008014004F0CABB2DE9F041D1
:1051900000240A4F01264FF0040800BF07EB041556
:1051A000AE712E7185F8058003F078F9641CE4B2C5
:1051B0002860032CF2D3BDE8F0810000983800206D
:1051C00070B52C4C16460D4622780499934250D364
:1051D00050EA050217D0B5B12370A160608003F0DA
:1051E0005DF96060244841F28833012D0FD02349D6
:1051F0004CF25034012E18D0022E18D0032E18D0A5
:10520000B4FBF5F125E0BDE8704005F0C7BC0068CF
:10521000436300211848FCF755FFBDE870400022A9
:105220004FF400411648FCF7A2B90A7A02E04A7A24
:1052300000E08A7AB4FBF5F132B1012A07D0022AE4
:1052400007D0032A08D112E00268536304E0CA08B9
:1052500000E08A0803685A630268D162C16000688E
:1052600000214162BDE870400348FCF7DDBE4A08FA
:10527000F0E770BD34020020243E00208C3800206E
:105280000008014040F29F513220FDF771BF00003D
:1052900010B5094C608800280CD003F0FFF8616855
:1052A000401A6188884205D300206080BDE8104024
:1052B00005F074BC10BD000034020020064A50788E
:1052C0001178C31D994202D3891FC8B202E08142FE
:1052D00000D2084650707047E4380020142101487D
:1052E000FAF7D9BFF038002030B585B00025204846
:1052F000009501950295012403950470FDF7E1FBEB
:105300001C48C5701C48816941F0040181618169B4
:1053100001F004010491816941F00101816180691A
:10532000102500F00100049000951448CDE9010417
:1053300069461348FCF726F81248016841F010014D
:10534000016010480C30016841F0100101600D4807
:1053500014300560042202210A20FCF797F90A2084
:10536000FCF787F901210846FCF7C2F905B030BD0A
:1053700028000020E4380020001002400000211026
:10538000000801400004014010B501210348FFF767
:10539000E5F903490020C87010BD00000D56000853
:1053A000E43800200FB410B50C4C206818B14FF051
:1053B000FF3106F087FF04A90398FEF7B3F808A0B1
:1053C000FEF78CF82068002804D000231A461946FE
:1053D00006F0A8FD10BC5DF814FB000004000020DE
:1053E0000D0A00000FB438B50D4C6068002803D0DA
:1053F0004FF0FF3106F066FF06A90598FEF792F818
:105400000020009007A0FEF769F86068002804D02B
:1054100000231A46194606F085FD38BC5DF814FBDA
:10542000000000200D0A00000FB410B50C4C2068DD
:1054300018B14FF0FF3106F045FF04A90398FEF7BD
:1054400071F808A0FEF74AF82068002804D000236D
:105450001A46194606F066FD10BC5DF814FB000004
:10546000040000200D0A00002DE9F05FDFF838B1DC
:10547000002259469BF800409BF803509BF802001D
:1054800049784FF0010928B19BF8043058468BB198
:10549000AD1F10E009B1E41C00E0E41EE4B2202CD2
:1054A00014D319B120248BF802900FE000248BF85C
:1054B00005200BE00A35EDB2802D07D35BB1002546
:1054C00001B142715FF000018BF80410E70800267B
:1054D000DFF8D88013E0802582700121F4E700BF57
:1054E00008EBC6108021FAF7D6FE714208EBC11016
:1054F000802100F56070FAF7CEFE761CF6B23846D1
:10550000BE42EDD314F007022BD0C001A0F2FF3150
:105510004942FF2303FA02F606F0FF0AD34009FAD4
:1055200002F68027D74006F0FF0989B200264246DE
:10553000761C12F800C0F6B20CEA0A0C4CEA090C10
:1055400002F800C012F801C0401C0CEA030C4CEA3F
:10555000070C02F801C0491E80B289B2802EE7D341
:105560001CE0DCB1C5F18000C4F14001C0F346008D
:10557000C1F3C40100EBC110464640440122294654
:10558000FAF782FE202C09D0FA017F201118401E64
:10559000735CC0B243F001037354F7D28BF8004040
:1055A0008BF80350BDE8F09F20010020243A002032
:1055B00009480A490068B0FBF1F009490870094838
:1055C000016841F080710160074800214160016875
:1055D00041F00101016070473800002040420F0097
:1055E000BC000020FCED00E0001000E0FBF7B8BEBE
:1055F00004494A68044B1B7858434B689B1A834202
:10560000FBD37047001000E0BC0000200248C068D7
:10561000002800D000477047100100200149C860F1
:10562000704700001001002002498A688860104617
:1056300070470000100100200C4900228B780C49B3
:1056400053B10123012809D04B708A700A700B7185
:105650008020C8704B7170474A7170474A708B70D8
:10566000202008700A71CA70F4E700008C3800200E
:10567000200100207CB502F011FF1D4C61686278AA
:10568000411A914231D3A17000266060FFF77CF887
:10569000A06804F1100528B1697909B9697839B9A8
:1056A00080470646687918B1FFF7DEFE687910B9C1
:1056B000FFF73EF800B101260E484FF47A754079A5
:1056C00060B1A0780CA1B5FBF0F26846FDF716FFBB
:1056D000382364220021684601F0C8F901F0AEF9D0
:1056E00026B12078B5FBF0F060707CBD2820FBE788
:1056F000100100208C380020257500000A21B0FB25
:10570000F1F0704708B560B120208DF80000282026
:105710008DF8010030208DF8020038208DF803004C
:1057200004E0A32204216846FAF7AEFD6A4604218C
:1057300040F69E2003F020FE03F0DEFA08BD0000D4
:105740003EB5044602208DF80000CA208DF8010005
:10575000E3208DF8020009208DF803006A46042139
:10576000682003F009FEA3208DF80000610609D52A
:10577000C0218DF80110C8218DF80210C2218DF8CA
:10578000031005E08DF801008DF802008DF803008C
:1057900014F4C07F09D0C4218DF80410CC218DF8F9
:1057A0000510C6218DF8061005E08DF804008DF86F
:1057B00005008DF806008DF808008DF807008DF8BB
:1057C00009006A460A2140F6A72003F0D5FDA0078C
:1057D0004FF0D80503D020208DF8000001E08DF8AF
:1057E00000506A46012140F6B62003F0C5FDA00630
:1057F00001D5012000E0002000F08EF814F4C07FF5
:105800001ED0E0050AD5B2208DF800008B208DF85F
:105810000100B6208DF802009B2009E0B0208DF831
:10582000000080208DF80100B4208DF80200902047
:105830008DF803006A46042140F6A22003F09CFD87
:10584000E1074FF40B6022D0F8218DF800106A4672
:10585000012103F091FDFA21072000F051FB072000
:1058600000F01CFB012000F039FB642000F0DCFBA1
:105870004FF4FA7000F0E8FBC821254800F0D6FA92
:10588000282000F0EBFA0A2000F0F8FA05E08DF885
:1058900000506A46012103F06FFDA00703D5D9200F
:1058A0008DF8000001E08DF800506A46012140F2B9
:1058B0003D7003F061FD600701D5012000E000208C
:1058C00000F048F8E00601D5012000E00020FFF7D5
:1058D00019FF104D44F00800688103F00DFA002014
:1058E000A873600601D50620A87314F4C07F02D007
:1058F000A87B801DA87314F0140F02D0A87B103071
:10590000A873A00702D0A87B001DA87300203EBD8D
:1059100009E3CA02143A00200EB54FF4976310B1A0
:1059200006A107C901E008A207CA8DE807006A4678
:105930000921184603F020FD0EBD0000B8AAB38D62
:10594000B4980D355D000000B8AAAAAAB088C3C5F6
:10595000C700000008B560B1C0208DF80000C2206B
:105960008DF80100C4208DF80200C6208DF80300D8
:1059700004E08B2204216846FAF786FC6A4604217B
:1059800040F6982003F0F8FC03F0B6F908BD38B5EE
:1059900004004FF0FF3506D06A4604214FF45870DA
:1059A00003F080F908B1284638BD00989DF803102F
:1059B00000BA20F0FF0008432060002038BD00003E
:1059C000C8234FF48062024940F6F63003F058B81D
:1059D000F0DE00082DE9FF4F89B01746DDE91652C9
:1059E00000244C4E884681462C80A246B07B6946F6
:1059F00003F010F94FF0FF3B18B158460DB0BDE869
:105A0000F08F708910F0140F3CD0009909BA21F082
:105A1000FF039DF803100B433B6001991B1409BA67
:105A200021F0FF029DF807105B430A437A60029958
:105A30009DF80B4009BA21F0FF012143B960039C96
:105A4000091424BA24F0FF0C9DF80F4012144CEAFC
:105A5000040CC7F80CC04FEA2C47494302FB023242
:105A600007FB071111441024A1F17061B1F1007F0F
:105A700004D903F041F9A5F800A0BEE7298841F454
:105A8000807129804206694611D50A19A41D138820
:105A90005BBAA8F8003053885BBAA8F80230928845
:105AA00052BAA8F804202A8842F008022A8010F48A
:105AB000C07F11D00A19A41D13885BBAA9F8003061
:105AC00053885BBAA9F80230928852BAA9F8042028
:105AD0002A8842F070022A80800716D00C44E078B1
